S01700004763634170706C69636174696F6E312E737265635B
S11300000C9434000C943E000C943E000C943E007E
S11300100C943E000C943E000C943E000C943E0064
S11300200C943E000C943E000C943E000C943E0054
S11300300C943E000C943E000C943E000C943E0044
S11300400C943E000C943E000C943E000C943E0034
S11300500C943E000C943E000C943E000C943E0024
S11300600C943E000C943E0011241FBECFEFD8E048
S1130070DEBFCDBF0E944C000C947E000C940000A7
S113008017B88FEF84B915B8089587E880937A007C
S113009082E480937C0008950E9440000E94450001
S11300A0EAE7F0E080818064808380917A0084FFB5
S11300B0FCCF80917800909179008533914018F4B9
S11300C081E085B9EDCF80917800909179008533F6
S11300D0914048F080917800909179008736924061
S11300E020F080E003C080E001C081E0882319F0A3
S11300F082E085B9D5CF84E085B9D2CFF894FFCF1B
S9030000FC
