:020000020000FC
:040000000C9400015B
:040008000C94000351
:040014000C94000444
:040040000C9400021A
:1002000008E00EBF0FEF0DBF0E94220101E0009336
:100210006E0078940E94290152EB02E00DBB08E0C9
:100220000093690004E00093680000E200936D0011
:10023000789442E078944C9901C002C02898FBCF92
:10024000289AF9CF209A2898219A299854985C9A4C
:10025000089541EB46BD40E044BD45E045BD0895ED
:100400005A9529F458EC15B128E0122715B922EBBA
:0404100026BD189558
:0A06000015B122E0122715B9189574
:100800004A9529F415B124E0122715B942E018954C
:00000001FF
